:0300000002012AD0
:0C012A00787FE4F6D8FD7581090200FF23
:10011A00D8F7BDF887F9E4F990FA29FBB1FBEFFBB0
:1000FF00758901E50890011A93F58AE50993F58C46
:0B010F00D2A9C28CD2AF12000E80FB00
:0400BF007F017E003F
:1000C300D3EF9400EE6480948040147D6E7C00ED49
:0F00D3001D70011CED4C70F7EF1F70E41E80E1F3
:0100E20022FB
:10000E002090131200BF209008E4F508750901D264
:10001E008C3090FDC28C2091131200BF2091087578
:10002E000802750903D28C3091FDC28C20921312F6
:10003E0000BF209208750804750905D28C3092FD18
:10004E00C28C2093131200BF209308750806750901
:10005E0007D28C3093FDC28C2094131200BF2094D3
:10006E0008750808750909D28C3094FDC28C20954C
:10007E00131200BF20950875080A75090BD28C3033
:10008E0095FDC28C2096131200BF20960875080CA1
:10009E0075090DD28C3096FDC28C2097131200BFBD
:1000AE0020970875080E75090FD28C3097FDC28CFB
:0100BE00221F
:03000B000200E30D
:1000E300C0E0C083C082E50890011A93F58AE50950
:0C00F30093F58CB280D082D083D0E03234
:00000001FF
