:0300000002008675
:0C008600787FE4F6D8FD75810B020016AF
:10005A00D3EF9400EE9400400F7D267C82DCFEDD17
:08006A00FAEF1F70EB1E80E8A5
:01007200226B
:10001600758901758CEC758A78D28CD2AFD2A9D24B
:10002600AA750800750901C3E50B941EE50A6480EC
:10003600948040F3E4F50AF50B8509907F0AFE12D9
:10004600005AAF097801EF08800123D8FD75080032
:04005600F50980D355
:03000B000200737D
:10007300C0E0758CEC758A78050BE50B7002050AF8
:03008300D0E03298
:03001300020003E5
:03000300B28C328A
:00000001FF
