:1000BE007FBFDFEFF7FBFDFE5B3F067D3F6D063F2B
:0800CE00060640060640060686
:0B0093003AF583E493F5807F017E00C6
:10009E00D3EF9400EE6480948040147D6E7C00ED6E
:0F00AE001D70011CED4C70F7EF1F70E41E80E118
:0100BD002220
:10000300E4F508F509E4FAFB74BE2BF58274003AB3
:10001300F583E493F59074C62BF582740012009374
:10002300E4F5800BBB00010AEB64084A70DA0509AA
:10003300E50970020508C3942CE5086480948140A7
:10004300C47F647E0012009EE4F508F509E4FAFB20
:1000530074BE2BF58274003AF583E493F59074CE65
:100063002BF5827400120093E4F5800BBB00010AA8
:10007300EB64084A70DA0509E50970020508C394C0
:100083002CE5086480948140C47F647E0002009E56
:030000000200D625
:0C00D600787FE4F6D8FD75810902000374
:00000001FF
