:03000000020304F4
:0C030400787FE4F6D8FD75811302034BEE
:10041000FDFBF7EFDFBF7F003F065B4F666D7D079B
:080420007F6F777C395E797172
:0400030002080000EF
:1003D40074102511F58274043510F583E493F590B7
:0C03E400740A2511F8E6F5807F017E0008
:1003F000D3EF9400EE6480948040147D6E7C00ED19
:0F0400001D70011CED4C70F7EF1F70E41E80E1C2
:01040F0022CA
:10000E0012044DC2AFE4F508F50920A7F87F0112DE
:10001E00043B20A7F0D2AFE4F512F51320A7187F0A
:10002E000112043B0513E51370020512C39432E569
:10003E00126480948040E5AE08AF09EE3395E0FD82
:10004E00FC7BA07A867901780012039074182FF544
:10005E008274043EF583E493F50AAE08AF09EE33DD
:10006E0095E0FDFC7BA07A8679017800120390ACB6
:10007E0000AD01AE02AF03E47B107A27F9F812034C
:10008E009074182FF58274043EF583E493F50BAE4D
:10009E0008AF097C277D101201AB7E037FE8CFCD20
:1000AE00CFCECCCE1201AB74182FF58274043EF570
:1000BE0083E4934480F50CAE08AF097C037DE8120F
:1000CE0001AB7E007F64CFCDCFCECCCE1201AB7410
:1000DE00182FF58274043EF583E493F50DAE08AF48
:1000EE00097C007D641201AB7E007F0ACFCDCFCE9E
:1000FE00CCCE1201AB74182FF58274043EF583E456
:10010E0093F50EAE08AF097C007D0A1201AB741890
:10011E002DF58274043CF583E493F50FE4F510F5A8
:10012E00111203D4E4F5800511E51170020510C318
:10013E009406E5106480948040E730A703020045E2
:10014E00C2AF7F0112043B30A703020045E4F51253
:10015E00F51320A7187F0112043B0513E513700257
:10016E000512C39432E5126480948040E520A60BFC
:10017E007F0112043B20A60302000EE4F510F511D8
:10018E00C3E5119406E5106480948050E01203D408
:0D019E00E4F5800511E51170E7051080E320
:10044D00758901758CFC758A18D2AFD2A9D28C2210
:10043B00EFD39400400B7E267D8ADDFEDEFA1F8013
:01044B00EFC1
:01044C00228D
:03000B00020428C4
:10042800C0E0758CFC758A180509E5097002050895
:03043800D0E032DF
:1003100002000EE493A3F8E493A34003F68001F2F5
:1003200008DFF48029E493A3F85407240CC8C333EE
:10033000C4540F4420C8834004F456800146F6DFBD
:10034000E4800B0102040810204080900003E47E4A
:10035000019360BCA3FF543F30E509541FFEE493B2
:10036000A360010ECF54C025E060A840B8E493A379
:10037000FAE493A3F8E493A3C8C582C8CAC583CAA4
:10038000F0A3C8C582C8CAC583CADFE9DEE780BE5C
:0100070000F8
:1001AB00C2D5EC30E709B2D5E4C39DFDE49CFCEE6F
:1001BB0030E715B2D5E4C39FFFE49EFE1201E1C305
:1001CB00E49DFDE49CFC80031201E130D507C3E400
:0601DB009FFFE49EFE22DE
:10039000C2D5E830E70FB2D5E4C39BFBE49AFAE498
:1003A00099F9E498F8EC30E717B2D51203C61202B7
:1003B00072E4C39BFBE49AFAE499F9E498F88003A9
:1003C00012027230D50DE4C39FFFE49EFEE49DFD52
:0403D000E49CFC228B
:1001E100BC000BBE0029EF8DF084FFADF022E4CC02
:1001F100F875F008EF2FFFEE33FEEC33FCEE9DECCB
:10020100984005FCEE9DFE0FD5F0E9E4CEFD22ED10
:10021100F8F5F0EE8420D21CFEADF075F008EF2F5A
:10022100FFED33FD4007985006D5F0F222C398FD4B
:050231000FD5F0EA22E8
:1002360075F008758200EF2FFFEE33FECD33CDCC7F
:1002460033CCC58233C5829BED9AEC99E582984002
:100256000CF582EE9BFEED9AFDEC99FC0FD5F0D6DF
:10026600E4CEFBE4CDFAE4CCF9A88222B800C1B909
:100276000059BA002DEC8BF084CFCECDFCE5F0CB47
:10028600F97818EF2FFFEE33FEED33FDEC33FCEB80
:1002960033FB10D703994004EB99FB0FD8E5E4F93B
:1002A600FA227818EF2FFFEE33FEED33FDEC33FC28
:1002B600C933C910D7059BE99A4007EC9BFCE99A1C
:1002C600F90FD8E0E4C9FAE4CCFB2275F010EF2F61
:1002D600FFEE33FEED33FDCC33CCC833C810D70761
:1002E6009BEC9AE899400AED9BFDEC9AFCE899F89C
:0E02F6000FD5F0DAE4CDFBE4CCFAE4C8F9222F
:00000001FF
