:030000000202BD3C
:0C02BD00787FE4F6D8FD75811402000380
:0702C90070696763617400B6
:1000030078087C007D007BFF7A0279C97E007F033C
:100013001201FF780B7C007D007BFF7A0279CC7E96
:10002300007F041201FF1202257F85120245E4F5C9
:1000330013F514740B2514F8E6FF1202600514E59A
:100043001470020513C39403E5136480948040E3A2
:100053007F06120245E4F511F5127FC0120245E452
:10006300F513F514C3E5149512E5116480F8E5134F
:10007300648098500F7F201202600514E51470E429
:10008300051380E0E4F50FF51074082510F8E6FF7A
:100093001202600510E5107002050FC39403E50F0B
:1000A3006480948040E37F321202910512E512705E
:1000B300020511C3940EE51164809480409C7F0473
:1000C300120245E4F511F5127FCF120245E4F51350
:1000D300F514C3E5149512E5116480F8E513648003
:1000E30098500F7F201202600514E51470E4051385
:1000F30080E0750F0075100274082510F8E6FF12F2
:100103000260E51015107002150FC3E50F648094AB
:100113008050E57F321202910512E512700205113B
:0B012300C3940DE51164809480409DA2
:01012E0022AE
:10027B00EF1FAA0670011E4A600BE4FDEDC3940D3F
:05028B0050EE0D80F7AC
:01029000224B
:0C02A300E4FFE4FE0EBEFAFC0FBFFAF60A
:0102AF00222C
:0C02B000E4FFE4FE0EBEFAFC0FBF7DF67A
:0102BC00221F
:10029100EFD39400400B7E267D8ADDFEDEFA1F80BF
:0102A100EF6D
:0102A2002239
:10024500C2A7C2A6C2A58F807F0A7E0012027BD2FA
:0B025500A77F0A7E0012027BC2A722D6
:10026000C2A7D2A6C2A58F807F0A7E0012027BD2CF
:0B027000A77F0A7E0012027BC2A722BB
:100225007F2C7E0112027B7F381202457F08120265
:10023500457F011202457F061202457F0C020245E9
:10012F00E709F608DFFA8046E709F208DFFA803EB2
:10013F0088828C83E709F0A3DFFA8032E309F6089F
:10014F00DFFA8078E309F208DFFA807088828C8307
:10015F00E309F0A3DFFA806489828A83E0A3F608BB
:10016F00DFFA805889828A83E0A3F208DFFA804C95
:10017F0080D280FA80C680D4806980F2803380106C
:10018F0080A680EA809A80A880DA80E280CA8033D5
:10019F0089828A83ECFAE493A3C8C582C8CCC5834D
:1001AF00CCF0A3C8C582C8CCC583CCDFE9DEE7801D
:1001BF000D89828A83E493A3F608DFF9ECFAA9F09C
:1001CF00EDFB2289828A83ECFAE0A3C8C582C8CCF2
:1001DF00C583CCF0A3C8C582C8CCC583CCDFEADE0B
:1001EF00E880DB89828A83E493A3F208DFF980CC6D
:1001FF0088F0EF60010E4E60C388F0ED2402B40466
:10020F000050B9F582EB2402B4040050AF2323450C
:06021F00822390017F73B1
:00000001FF
