:080003007FBFDFEFF7FBFDFEFC
:0D03DC000B143F065B4F666D7D077F6F4081
:1003A0007403252CF5827400352BF583E493F590C6
:0C03B0007421252CF8E6F5807F017E000A
:1003BC00E4FDFCC3ED9FEC9E5015E4FBFA0BBB0077
:0F03CC00010AEB64784A70F50DBD00010C80E466
:0103DB0022FF
:10000E00758901758C02758A01D2AFD2A9D28CAFD7
:10001E008C7508008F09AF8A750A008F0BAE08AF7A
:10002E00097C007D0A12034B74142DF8E6F521AEFF
:10003E0008AF097C007D0A12034B7C007D0A120377
:10004E004B74142DF8E6F522AE0AAF0B7C007D0A38
:10005E0012034B74142DF8E6F523AE0AAF0B7C0099
:10006E007D0A12034B7C007D0A12034B74142DF88B
:10007E00E6F524AE08AF097C007D0512034B74141F
:10008E002DF8E6F525AE08AF097C007D0512034B71
:10009E007C007D0512034B74142DF8E6F526AE0A8E
:1000AE00AF0B7C007D0512034B74142DF8E6F5277B
:1000BE00AE0AAF0B7C007D0512034B7C007D051252
:1000CE00034B74142DF8E6F528E4F529F52AE4F52A
:1000DE002BF52C1203A0E4F580052CE52C700205FF
:1000EE002BC39408E52B6480948040E730A703026D
:1000FE0002A67F027E001203BC30A7030202A68076
:10010E000720A7097F027E001203BC80F4E4F52BC2
:10011E00F52C1203A0E4F580052CE52C7002052BBE
:10012E00C39408E52B6480948040E720A71B7F02D0
:10013E007E001203BC20A711800A30A70302001D07
:10014E007F027E001203BC80F120A6C17F027E00DA
:10015E001203BC20A6B71203BCAE08AF097C007D0B
:10016E000A12034B8D0CAE08AF097C007D0A1203F8
:10017E004B7C007D0A12034B8D0DAE0AAF0B7C003B
:10018E007D0A12034B8D0EAE0AAF0B7C007D0A1258
:10019E00034B7C007D0A12034B8D0FAE08AF097C1A
:1001AE00007D0512034B8D10AE08AF097C007D0556
:1001BE0012034B7C007D0512034B8D11AE0AAF0B63
:1001CE007C007D0512034B8D12AE0AAF0B7C007DB9
:1001DE000512034B7C007D0512034B8D13751F001A
:1001EE00850C20E4F52DF52EE4F52FF530C37407BC
:1001FE00952EFFE4952DFEC3E5309FEE6480F8E565
:10020E002F6480985030AF30740D2FF8E6FE740CCA
:10021E002FF8E6FFD39E4014EF751F00F520AF3088
:10022E00740C2FF8A606740D2FF8A6200530E530B5
:10023E0070BB052F80B7052EE52E7002052D6407C5
:10024E00452D70A4E4F529F52A7403252AF5827448
:10025E00003529F583E493F590740C252AF8E624ED
:10026E00141203B4E4F580052AE52A70020529C3A9
:10027E009408E5296480948040CF20A7C77F027E32
:10028E00001203BC20A7BD800A30A70302001D7F09
:10029E00027E001203BC80F1052AE52A70020529B0
:1002AE00C3940AE5296480948050030200DC0200A6
:0102BE001D22
:03000B000203EA03
:0703EA00758C02758A0132D7
:030000000202BF3A
:0C02BF00787FE4F6D8FD7581300203065C
:10034B00BC000BBE0029EF8DF084FFADF022E4CC96
:10035B00F875F008EF2FFFEE33FEEC33FCEE9DEC5F
:10036B00984005FCEE9DFE0FD5F0E9E4CEFD22EDA5
:10037B00F8F5F0EE8420D21CFEADF075F008EF2FEF
:10038B00FFED33FD4007985006D5F0F222C398FDE0
:05039B000FD5F0EA227D
:1002CB0002000EE493A3F8E493A34003F68001F23B
:1002DB0008DFF48029E493A3F85407240CC8C33334
:1002EB00C4540F4420C8834004F456800146F6DF03
:1002FB00E4800B01020408102040809003DCE47EB4
:10030B00019360BCA3FF543F30E509541FFEE493F7
:10031B00A360010ECF54C025E060A840B8E493A3BE
:10032B00FAE493A3F8E493A3C8C582C8CAC583CAE9
:10033B00F0A3C8C582C8CAC583CADFE9DEE780BEA1
:0103E9000013
:00000001FF
