:030000000200DC1F
:0C00DC00787FE4F6D8FD75810C02001E50
:0400BF007F017E003F
:1000C300D3EF9400EE9400400F7D267C82DCFEDDAE
:0800D300FAEF1F70EB1E80E83C
:0100DB002202
:10001E0075080075091EC281C282C283C284C28560
:10002E00C286C2871200032090321200BF20902C8D
:10003E001200BF74052509F509E43508F508E4F545
:10004E000AF50B2090161200BF050BE50B7002058A
:10005E000AC39432E50A6480948040E720912F12FF
:10006E0000BF2091291200BFE5091509700215087D
:10007E00E4F50AF50B2090161200BF050BE50B7088
:10008E0002050AC39432E50A6480948040E7E50CC9
:10009E00D394324003E4F50CC3E50C9509E50864EE
:1000AE0080F87480985005D280020035C28002001C
:0100BE00350C
:10000300438910758DFE758B0CD2ABD2AFD28E2285
:03001B000200E8F8
:0900E800758DFE758B0C050C32C0
:00000001FF
